{
	"contractName": "freelancer",
	"abi": [
		{
			"inputs": [],
			"stateMutability": "nonpayable",
			"type": "constructor"
		},
		{
			"anonymous": false,
			"inputs": [
				{
					"indexed": false,
					"internalType": "int256",
					"name": "scheduleID",
					"type": "int256"
				},
				{
					"indexed": false,
					"internalType": "uint256",
					"name": "valueReleased",
					"type": "uint256"
				}
			],
			"name": "fundsReleased",
			"type": "event"
		},
		{
			"anonymous": false,
			"inputs": [
				{
					"indexed": false,
					"internalType": "address",
					"name": "clientAddress",
					"type": "address"
				}
			],
			"name": "projectAccepted",
			"type": "event"
		},
		{
			"anonymous": false,
			"inputs": [],
			"name": "projectEnded",
			"type": "event"
		},
		{
			"anonymous": false,
			"inputs": [
				{
					"indexed": false,
					"internalType": "string",
					"name": "shortCode",
					"type": "string"
				}
			],
			"name": "scheduleAdded",
			"type": "event"
		},
		{
			"anonymous": false,
			"inputs": [
				{
					"indexed": false,
					"internalType": "int256",
					"name": "scheduleID",
					"type": "int256"
				}
			],
			"name": "taskApproved",
			"type": "event"
		},
		{
			"anonymous": false,
			"inputs": [
				{
					"indexed": false,
					"internalType": "int256",
					"name": "scheduleID",
					"type": "int256"
				}
			],
			"name": "taskFunded",
			"type": "event"
		},
		{
			"anonymous": false,
			"inputs": [
				{
					"indexed": false,
					"internalType": "int256",
					"name": "scheduleID",
					"type": "int256"
				}
			],
			"name": "taskStarted",
			"type": "event"
		},
		{
			"inputs": [],
			"name": "clientAddress",
			"outputs": [
				{
					"internalType": "address",
					"name": "",
					"type": "address"
				}
			],
			"stateMutability": "view",
			"type": "function"
		},
		{
			"inputs": [],
			"name": "freelancerAddress",
			"outputs": [
				{
					"internalType": "address payable",
					"name": "",
					"type": "address"
				}
			],
			"stateMutability": "view",
			"type": "function"
		},
		{
			"inputs": [],
			"name": "projectState",
			"outputs": [
				{
					"internalType": "enum freelancer.ProjectState",
					"name": "",
					"type": "uint8"
				}
			],
			"stateMutability": "view",
			"type": "function"
		},
		{
			"inputs": [
				{
					"internalType": "int256",
					"name": "",
					"type": "int256"
				}
			],
			"name": "scheduleRegister",
			"outputs": [
				{
					"internalType": "string",
					"name": "shortCode",
					"type": "string"
				},
				{
					"internalType": "string",
					"name": "description",
					"type": "string"
				},
				{
					"internalType": "uint256",
					"name": "value",
					"type": "uint256"
				},
				{
					"internalType": "enum freelancer.ScheduleState",
					"name": "scheduleState",
					"type": "uint8"
				}
			],
			"stateMutability": "view",
			"type": "function"
		},
		{
			"inputs": [],
			"name": "totalSchedules",
			"outputs": [
				{
					"internalType": "int256",
					"name": "",
					"type": "int256"
				}
			],
			"stateMutability": "view",
			"type": "function"
		},
		{
			"inputs": [
				{
					"internalType": "string",
					"name": "_shortCode",
					"type": "string"
				},
				{
					"internalType": "string",
					"name": "_description",
					"type": "string"
				},
				{
					"internalType": "uint256",
					"name": "_value",
					"type": "uint256"
				}
			],
			"name": "addSchedule",
			"outputs": [],
			"stateMutability": "nonpayable",
			"type": "function"
		},
		{
			"inputs": [],
			"name": "acceptProject",
			"outputs": [],
			"stateMutability": "nonpayable",
			"type": "function"
		},
		{
			"inputs": [
				{
					"internalType": "int256",
					"name": "_scheduleID",
					"type": "int256"
				}
			],
			"name": "fundTask",
			"outputs": [],
			"stateMutability": "payable",
			"type": "function"
		},
		{
			"inputs": [
				{
					"internalType": "int256",
					"name": "_scheduleID",
					"type": "int256"
				}
			],
			"name": "startTask",
			"outputs": [],
			"stateMutability": "nonpayable",
			"type": "function"
		},
		{
			"inputs": [
				{
					"internalType": "int256",
					"name": "_scheduleID",
					"type": "int256"
				}
			],
			"name": "approveTask",
			"outputs": [],
			"stateMutability": "nonpayable",
			"type": "function"
		},
		{
			"inputs": [
				{
					"internalType": "int256",
					"name": "_scheduleID",
					"type": "int256"
				}
			],
			"name": "releaseFunds",
			"outputs": [],
			"stateMutability": "payable",
			"type": "function"
		},
		{
			"inputs": [],
			"name": "endProject",
			"outputs": [],
			"stateMutability": "nonpayable",
			"type": "function"
		},
		{
			"inputs": [],
			"name": "getBalance",
			"outputs": [
				{
					"internalType": "uint256",
					"name": "balance",
					"type": "uint256"
				}
			],
			"stateMutability": "view",
			"type": "function"
		}
	],
	"bytecode": "0x60806040526000805534801561001457600080fd5b5033600160006101000a81548173ffffffffffffffffffffffffffffffffffffffff021916908373ffffffffffffffffffffffffffffffffffffffff1602179055506000600260146101000a81548160ff021916908360028111156100a2577f4e487b7100000000000000000000000000000000000000000000000000000000600052602160045260246000fd5b0217905550611b2b806100b66000396000f3fe6080604052600436106100c25760003560e01c806384bf66ac1161007f578063bab5691011610059578063bab5691014610235578063bb6fc95014610275578063c396640914610291578063c916b6de146102a8576100c2565b806384bf66ac146101b8578063965720af146101e1578063b7896a301461020c576100c2565b8063054f84ed146100c757806306a4e7cb146100e357806312065fe01461010e5780632c2ab5ea146101395780636dc5434c14610164578063748807ab1461018d575b600080fd5b6100e160048036038101906100dc9190611502565b6102bf565b005b3480156100ef57600080fd5b506100f861052a565b6040516101059190611658565b60405180910390f35b34801561011a57600080fd5b50610123610550565b6040516101309190611747565b60405180910390f35b34801561014557600080fd5b5061014e610558565b60405161015b919061163d565b60405180910390f35b34801561017057600080fd5b5061018b60048036038101906101869190611502565b61057e565b005b34801561019957600080fd5b506101a26107c2565b6040516101af9190611673565b60405180910390f35b3480156101c457600080fd5b506101df60048036038101906101da919061152b565b6107d5565b005b3480156101ed57600080fd5b506101f6610a64565b604051610203919061168e565b60405180910390f35b34801561021857600080fd5b50610233600480360381019061022e9190611502565b610a6a565b005b34801561024157600080fd5b5061025c60048036038101906102579190611502565b610cae565b60405161026c94939291906116f4565b60405180910390f35b61028f600480360381019061028a9190611502565b610dfb565b005b34801561029d57600080fd5b506102a66110d7565b005b3480156102b457600080fd5b506102bd611214565b005b60018060028111156102fa577f4e487b7100000000000000000000000000000000000000000000000000000000600052602160045260246000fd5b600260149054906101000a900460ff166002811115610342577f4e487b7100000000000000000000000000000000000000000000000000000000600052602160045260246000fd5b1461034c57600080fd5b816000600160005461035e91906117df565b82131580156103ff57508060048111156103a1577f4e487b7100000000000000000000000000000000000000000000000000000000600052602160045260246000fd5b6003600084815260200190815260200160002060030160009054906101000a900460ff1660048111156103fd577f4e487b7100000000000000000000000000000000000000000000000000000000600052602160045260246000fd5b145b61040857600080fd5b83348060036000848152602001908152602001600020600201541461042c57600080fd5b600260009054906101000a900473ffffffffffffffffffffffffffffffffffffffff1673ffffffffffffffffffffffffffffffffffffffff163373ffffffffffffffffffffffffffffffffffffffff161461048657600080fd5b60016003600088815260200190815260200160002060030160006101000a81548160ff021916908360048111156104e6577f4e487b7100000000000000000000000000000000000000000000000000000000600052602160045260246000fd5b02179055507fd58e7b4972479e30bd65e34280dcda90802a617a803cb4b39764a2a30d3a8eae8660405161051a919061168e565b60405180910390a1505050505050565b600160009054906101000a900473ffffffffffffffffffffffffffffffffffffffff1681565b600047905090565b600260009054906101000a900473ffffffffffffffffffffffffffffffffffffffff1681565b60018060028111156105b9577f4e487b7100000000000000000000000000000000000000000000000000000000600052602160045260246000fd5b600260149054906101000a900460ff166002811115610601577f4e487b7100000000000000000000000000000000000000000000000000000000600052602160045260246000fd5b1461060b57600080fd5b816002600160005461061d91906117df565b82131580156106be5750806004811115610660577f4e487b7100000000000000000000000000000000000000000000000000000000600052602160045260246000fd5b6003600084815260200190815260200160002060030160009054906101000a900460ff1660048111156106bc577f4e487b7100000000000000000000000000000000000000000000000000000000600052602160045260246000fd5b145b6106c757600080fd5b600260009054906101000a900473ffffffffffffffffffffffffffffffffffffffff1673ffffffffffffffffffffffffffffffffffffffff163373ffffffffffffffffffffffffffffffffffffffff161461072157600080fd5b600380600086815260200190815260200160002060030160006101000a81548160ff02191690836004811115610780577f4e487b7100000000000000000000000000000000000000000000000000000000600052602160045260246000fd5b02179055507f38f72d6c98702d265aec82b55e4b637d84fa97622b2244cd84dca2f171a0cefc846040516107b4919061168e565b60405180910390a150505050565b600260149054906101000a900460ff1681565b6000806002811115610810577f4e487b7100000000000000000000000000000000000000000000000000000000600052602160045260246000fd5b600260149054906101000a900460ff166002811115610858577f4e487b7100000000000000000000000000000000000000000000000000000000600052602160045260246000fd5b1461086257600080fd5b600160009054906101000a900473ffffffffffffffffffffffffffffffffffffffff1673ffffffffffffffffffffffffffffffffffffffff163373ffffffffffffffffffffffffffffffffffffffff16146108bc57600080fd5b6108c461136d565b848160000181905250838160200181905250600081606001906004811115610915577f4e487b7100000000000000000000000000000000000000000000000000000000600052602160045260246000fd5b9081600481111561094f577f4e487b7100000000000000000000000000000000000000000000000000000000600052602160045260246000fd5b8152505082816040018181525050806003600080548152602001908152602001600020600082015181600001908051906020019061098e9291906113cd565b5060208201518160010190805190602001906109ab9291906113cd565b506040820151816002015560608201518160030160006101000a81548160ff02191690836004811115610a07577f4e487b7100000000000000000000000000000000000000000000000000000000600052602160045260246000fd5b0217905550905050600080815480929190610a2190611989565b91905055507ff29fdea51f7ec4cf45bbb7eb61e67fa64cf90101b5ea7415c5b02b69bac9c59485604051610a5591906116d2565b60405180910390a15050505050565b60005481565b6001806002811115610aa5577f4e487b7100000000000000000000000000000000000000000000000000000000600052602160045260246000fd5b600260149054906101000a900460ff166002811115610aed577f4e487b7100000000000000000000000000000000000000000000000000000000600052602160045260246000fd5b14610af757600080fd5b81600180600054610b0891906117df565b8213158015610ba95750806004811115610b4b577f4e487b7100000000000000000000000000000000000000000000000000000000600052602160045260246000fd5b6003600084815260200190815260200160002060030160009054906101000a900460ff166004811115610ba7577f4e487b7100000000000000000000000000000000000000000000000000000000600052602160045260246000fd5b145b610bb257600080fd5b600160009054906101000a900473ffffffffffffffffffffffffffffffffffffffff1673ffffffffffffffffffffffffffffffffffffffff163373ffffffffffffffffffffffffffffffffffffffff1614610c0c57600080fd5b60026003600086815260200190815260200160002060030160006101000a81548160ff02191690836004811115610c6c577f4e487b7100000000000000000000000000000000000000000000000000000000600052602160045260246000fd5b02179055507fde2dc33fbe2a5b6bf5e0ed721d44dc14441c4eef2cf4975ce14fd7bc0549489c84604051610ca0919061168e565b60405180910390a150505050565b6003602052806000526040600020600091509050806000018054610cd190611957565b80601f0160208091040260200160405190810160405280929190818152602001828054610cfd90611957565b8015610d4a5780601f10610d1f57610100808354040283529160200191610d4a565b820191906000526020600020905b815481529060010190602001808311610d2d57829003601f168201915b505050505090806001018054610d5f90611957565b80601f0160208091040260200160405190810160405280929190818152602001828054610d8b90611957565b8015610dd85780601f10610dad57610100808354040283529160200191610dd8565b820191906000526020600020905b815481529060010190602001808311610dbb57829003601f168201915b5050505050908060020154908060030160009054906101000a900460ff16905084565b6001806002811115610e36577f4e487b7100000000000000000000000000000000000000000000000000000000600052602160045260246000fd5b600260149054906101000a900460ff166002811115610e7e577f4e487b7100000000000000000000000000000000000000000000000000000000600052602160045260246000fd5b14610e8857600080fd5b8160036001600054610e9a91906117df565b8213158015610f3b5750806004811115610edd577f4e487b7100000000000000000000000000000000000000000000000000000000600052602160045260246000fd5b6003600084815260200190815260200160002060030160009054906101000a900460ff166004811115610f39577f4e487b7100000000000000000000000000000000000000000000000000000000600052602160045260246000fd5b145b610f4457600080fd5b600160009054906101000a900473ffffffffffffffffffffffffffffffffffffffff1673ffffffffffffffffffffffffffffffffffffffff163373ffffffffffffffffffffffffffffffffffffffff1614610f9e57600080fd5b600160009054906101000a900473ffffffffffffffffffffffffffffffffffffffff1673ffffffffffffffffffffffffffffffffffffffff166108fc60036000878152602001908152602001600020600201549081150290604051600060405180830381858888f1935050505015801561101c573d6000803e3d6000fd5b5060046003600086815260200190815260200160002060030160006101000a81548160ff0219169083600481111561107d577f4e487b7100000000000000000000000000000000000000000000000000000000600052602160045260246000fd5b02179055507fd73e163332c47993ba97b46887362ea1f01120cbc609242b41762901217bfd5d8460036000878152602001908152602001600020600201546040516110c99291906116a9565b60405180910390a150505050565b600260009054906101000a900473ffffffffffffffffffffffffffffffffffffffff1673ffffffffffffffffffffffffffffffffffffffff163373ffffffffffffffffffffffffffffffffffffffff1614806111805750600160009054906101000a900473ffffffffffffffffffffffffffffffffffffffff1673ffffffffffffffffffffffffffffffffffffffff163373ffffffffffffffffffffffffffffffffffffffff16145b61118957600080fd5b6000471461119657600080fd5b60028060146101000a81548160ff021916908360028111156111e1577f4e487b7100000000000000000000000000000000000000000000000000000000600052602160045260246000fd5b02179055507fbef1ef6470add1875c12e547d844894de0608f7d47527676863b44153090bfe260405160405180910390a1565b600080600281111561124f577f4e487b7100000000000000000000000000000000000000000000000000000000600052602160045260246000fd5b600260149054906101000a900460ff166002811115611297577f4e487b7100000000000000000000000000000000000000000000000000000000600052602160045260246000fd5b146112a157600080fd5b33600260006101000a81548173ffffffffffffffffffffffffffffffffffffffff021916908373ffffffffffffffffffffffffffffffffffffffff1602179055506001600260146101000a81548160ff0219169083600281111561132e577f4e487b7100000000000000000000000000000000000000000000000000000000600052602160045260246000fd5b02179055507f01bc39c23d192137df337abb0c6fe3f63a86ead52f73452ca64136a5dfd7ff4333604051611362919061163d565b60405180910390a150565b6040518060800160405280606081526020016060815260200160008152602001600060048111156113c7577f4e487b7100000000000000000000000000000000000000000000000000000000600052602160045260246000fd5b81525090565b8280546113d990611957565b90600052602060002090601f0160209004810192826113fb5760008555611442565b82601f1061141457805160ff1916838001178555611442565b82800160010185558215611442579182015b82811115611441578251825591602001919060010190611426565b5b50905061144f9190611453565b5090565b5b8082111561146c576000816000905550600101611454565b5090565b600061148361147e84611793565b611762565b90508281526020810184848401111561149b57600080fd5b6114a6848285611915565b509392505050565b6000813590506114bd81611ac7565b92915050565b600082601f8301126114d457600080fd5b81356114e4848260208601611470565b91505092915050565b6000813590506114fc81611ade565b92915050565b60006020828403121561151457600080fd5b6000611522848285016114ae565b91505092915050565b60008060006060848603121561154057600080fd5b600084013567ffffffffffffffff81111561155a57600080fd5b611566868287016114c3565b935050602084013567ffffffffffffffff81111561158357600080fd5b61158f868287016114c3565b92505060406115a0868287016114ed565b9150509250925092565b6115b381611885565b82525050565b6115c281611873565b82525050565b6115d1816118f1565b82525050565b6115e081611903565b82525050565b6115ef816118bd565b82525050565b6000611600826117c3565b61160a81856117ce565b935061161a818560208601611924565b61162381611a8e565b840191505092915050565b611637816118e7565b82525050565b600060208201905061165260008301846115b9565b92915050565b600060208201905061166d60008301846115aa565b92915050565b600060208201905061168860008301846115c8565b92915050565b60006020820190506116a360008301846115e6565b92915050565b60006040820190506116be60008301856115e6565b6116cb602083018461162e565b9392505050565b600060208201905081810360008301526116ec81846115f5565b905092915050565b6000608082019050818103600083015261170e81876115f5565b9050818103602083015261172281866115f5565b9050611731604083018561162e565b61173e60608301846115d7565b95945050505050565b600060208201905061175c600083018461162e565b92915050565b6000604051905081810181811067ffffffffffffffff8211171561178957611788611a5f565b5b8060405250919050565b600067ffffffffffffffff8211156117ae576117ad611a5f565b5b601f19601f8301169050602081019050919050565b600081519050919050565b600082825260208201905092915050565b60006117ea826118bd565b91506117f5836118bd565b9250827f8000000000000000000000000000000000000000000000000000000000000000018212600084121516156118305761182f6119d2565b5b827f7fffffffffffffffffffffffffffffffffffffffffffffffffffffffffffffff018213600084121615611868576118676119d2565b5b828203905092915050565b600061187e826118c7565b9050919050565b6000611890826118c7565b9050919050565b60008190506118a582611a9f565b919050565b60008190506118b882611ab3565b919050565b6000819050919050565b600073ffffffffffffffffffffffffffffffffffffffff82169050919050565b6000819050919050565b60006118fc82611897565b9050919050565b600061190e826118aa565b9050919050565b82818337600083830152505050565b60005b83811015611942578082015181840152602081019050611927565b83811115611951576000848401525b50505050565b6000600282049050600182168061196f57607f821691505b6020821081141561198357611982611a30565b5b50919050565b6000611994826118bd565b91507f7fffffffffffffffffffffffffffffffffffffffffffffffffffffffffffffff8214156119c7576119c66119d2565b5b600182019050919050565b7f4e487b7100000000000000000000000000000000000000000000000000000000600052601160045260246000fd5b7f4e487b7100000000000000000000000000000000000000000000000000000000600052602160045260246000fd5b7f4e487b7100000000000000000000000000000000000000000000000000000000600052602260045260246000fd5b7f4e487b7100000000000000000000000000000000000000000000000000000000600052604160045260246000fd5b6000601f19601f8301169050919050565b60038110611ab057611aaf611a01565b5b50565b60058110611ac457611ac3611a01565b5b50565b611ad0816118bd565b8114611adb57600080fd5b50565b611ae7816118e7565b8114611af257600080fd5b5056fea26469706673582212203ea51722f592834c14752d7e670d02ea9e0ab0ce4aaaab4eb57a4ca89e00bad164736f6c63430008000033",
	"immutableReferences": {},
	"source": "/**\n * @file freelance.sol\n * @author Jackson Ng <jackson@jacksonng.org>\n * @date created 17th Apr 2021\n * @date last modified 18th Apr 2021\n */\n\n//SPDX-License-Identifier: MIT\n \npragma solidity ^0.8.0;\n\ncontract freelancer{\n    \n    enum ScheduleState {planned, funded, started, approved, released}\n    enum ProjectState {initiated, accepted, closed}\n    \n    struct schedule{\n        string shortCode;\n        string description;\n        uint256 value;\n        ScheduleState scheduleState;\n    }  \n  \n    int256 public totalSchedules = 0;\n    address payable public freelancerAddress;\n    address public clientAddress;\n    ProjectState public projectState;\n    \n    mapping(int256 => schedule) public scheduleRegister;\n  \n\tmodifier condition(bool _condition) {\n\t\trequire(_condition);\n\t\t_;\n\t}\n\n\tmodifier onlyFreelancer() {\n\t\trequire(msg.sender == freelancerAddress);\n\t\t_;\n\t}\n\n\tmodifier onlyClient() {\n\t\trequire(msg.sender == clientAddress);\n\t\t_;\n\t}\n\t\n\tmodifier bothClientFreelancer(){\n\t\trequire(msg.sender == clientAddress || msg.sender == freelancerAddress);\n\t\t_;\t    \n\t}\n\n\tmodifier inProjectState(ProjectState _state) {\n\t\trequire(projectState == _state);\n\t\t_;\n\t}\n\n    modifier inScheduleState(int256 _scheduleID, ScheduleState _state){\n        require((_scheduleID <= totalSchedules - 1) && scheduleRegister[_scheduleID].scheduleState == _state);\n        _;\n    }\n\n    modifier ampleFunding(int256 _scheduleID, uint256 _funding){\n        require(scheduleRegister[_scheduleID].value == _funding);\n        _;\n    }\n\n    modifier noMoreFunds(){\n        require(address(this).balance == 0);\n        _;\n    }\n\n    event scheduleAdded(string shortCode);\n    event projectAccepted(address clientAddress);\n    event taskFunded(int256 scheduleID);\n    event taskStarted(int256 scheduleID);\n    event taskApproved(int256 scheduleID);\n    event fundsReleased(int256 scheduleID, uint256 valueReleased);\n    event projectEnded();\n    \n    constructor()\n    {\n        freelancerAddress = payable(msg.sender);\n        projectState = ProjectState.initiated;\n    }\n    \n    function addSchedule(string memory _shortCode, string memory _description, uint256 _value)\n        public\n        inProjectState(ProjectState.initiated)\n        onlyFreelancer\n    {\n        schedule memory s;\n        s.shortCode = _shortCode;\n        s.description = _description;\n        s.scheduleState = ScheduleState.planned;\n        s.value = _value;\n        scheduleRegister[totalSchedules] = s;\n        totalSchedules++;\n        emit scheduleAdded(_shortCode);\n    }\n    \n    function acceptProject()\n        public\n        inProjectState(ProjectState.initiated)\n    {\n        clientAddress = msg.sender;\n        projectState = ProjectState.accepted;\n        emit projectAccepted(msg.sender);\n    }\n    \n    function fundTask(int256 _scheduleID)\n        public\n        payable\n        inProjectState(ProjectState.accepted)\n        inScheduleState(_scheduleID, ScheduleState.planned)\n        ampleFunding(_scheduleID, msg.value)\n        onlyClient\n    {\n        scheduleRegister[_scheduleID].scheduleState = ScheduleState.funded;\n        emit taskFunded(_scheduleID);\n    }\n    \n    function startTask(int256 _scheduleID)\n        public\n        inProjectState(ProjectState.accepted)\n        inScheduleState(_scheduleID, ScheduleState.funded)\n        onlyFreelancer\n    {\n        scheduleRegister[_scheduleID].scheduleState = ScheduleState.started;\n        emit taskStarted(_scheduleID);\n    }\n\n    function approveTask(int256 _scheduleID)\n        public\n        inProjectState(ProjectState.accepted)\n        inScheduleState(_scheduleID, ScheduleState.started)\n        onlyClient\n    {\n        scheduleRegister[_scheduleID].scheduleState = ScheduleState.approved;\n        emit taskApproved(_scheduleID);\n    }\n    \n    function releaseFunds(int256 _scheduleID)\n        public\n        payable\n        inProjectState(ProjectState.accepted)\n        inScheduleState(_scheduleID, ScheduleState.approved)\n        onlyFreelancer\n    {\n        freelancerAddress.transfer(scheduleRegister[_scheduleID].value);\n        scheduleRegister[_scheduleID].scheduleState = ScheduleState.released;\n        emit fundsReleased(_scheduleID, scheduleRegister[_scheduleID].value);\n    }\n    \n    function endProject()\n        public\n        bothClientFreelancer\n        noMoreFunds\n    {\n        projectState = ProjectState.closed;\n        emit projectEnded();\n    }\n    \n    function getBalance()\n        public\n        view\n        returns (uint256 balance)\n    {\n        return address(this).balance;\n    }\n} ",
	"sourcePath": "C:\\Users\\kritik\\Downloads\\freelancer-main\\freelancer-main\\contracts\\freelancer.sol",
	"compiler": {
		"name": "solc",
		"version": "0.8.0+commit.c7dfd78e.Emscripten.clang"
	},
	"schemaVersion": "3.4.4",
	"updatedAt": "2022-02-06T05:42:25.999Z",
	"devdoc": {
		"kind": "dev",
		"methods": {},
		"version": 1
	},
	"userdoc": {
		"kind": "user",
		"methods": {},
		"version": 1
	}
}