{
	"data": {
		"bytecode": {
			"linkReferences": {},
			"object": "60806040526000805534801561001457600080fd5b50600180546001600160a01b031916331790556002805460ff60a01b19169055610dc8806100436000396000f3fe6080604052600436106100c25760003560e01c806384bf66ac1161007f578063bab5691011610059578063bab56910146101fa578063bb6fc9501461022a578063c39664091461023d578063c916b6de1461025257600080fd5b806384bf66ac146101a4578063965720af146101c4578063b7896a30146101da57600080fd5b8063054f84ed146100c757806306a4e7cb146100dc57806312065fe0146101195780632c2ab5ea146101365780636dc5434c14610156578063748807ab14610176575b600080fd5b6100da6100d5366004610b62565b610267565b005b3480156100e857600080fd5b506001546100fc906001600160a01b031681565b6040516001600160a01b0390911681526020015b60405180910390f35b34801561012557600080fd5b50475b604051908152602001610110565b34801561014257600080fd5b506002546100fc906001600160a01b031681565b34801561016257600080fd5b506100da610171366004610b62565b610382565b34801561018257600080fd5b5060025461019790600160a01b900460ff1681565b6040516101109190610c35565b3480156101b057600080fd5b506100da6101bf366004610b7b565b61047b565b3480156101d057600080fd5b5061012860005481565b3480156101e657600080fd5b506100da6101f5366004610b62565b61059f565b34801561020657600080fd5b5061021a610215366004610b62565b61068d565b6040516101109493929190610c69565b6100da610238366004610b62565b6107c9565b34801561024957600080fd5b506100da61090b565b34801561025e57600080fd5b506100da610980565b60018060028054600160a01b900460ff169081111561028857610288610d66565b1461029257600080fd5b81600060016000546102a49190610cb6565b82131580156102e957508060048111156102c0576102c0610d66565b6000838152600360208190526040909120015460ff1660048111156102e7576102e7610d66565b145b6102f257600080fd5b60008481526003602052604090206002015484903490811461031357600080fd5b6002546001600160a01b0316331461032a57600080fd5b600086815260036020818152604092839020909101805460ff1916600117905590518781527fd58e7b4972479e30bd65e34280dcda90802a617a803cb4b39764a2a30d3a8eae910160405180910390a1505050505050565b60018060028054600160a01b900460ff16908111156103a3576103a3610d66565b146103ad57600080fd5b81600260016000546103bf9190610cb6565b821315801561040457508060048111156103db576103db610d66565b6000838152600360208190526040909120015460ff16600481111561040257610402610d66565b145b61040d57600080fd5b6002546001600160a01b0316331461042457600080fd5b6000848152600360208181526040928390208201805460ff191690921790915590518581527f38f72d6c98702d265aec82b55e4b637d84fa97622b2244cd84dca2f171a0cefc91015b60405180910390a150505050565b60008060028054600160a01b900460ff169081111561049c5761049c610d66565b146104a657600080fd5b6001546001600160a01b031633146104bd57600080fd5b6104c5610a04565b84815260208082018590526000606083018190526040808401869052815482526003835290208251805184936104ff928492910190610a3c565b5060208281015180516105189260018501920190610a3c565b5060408201516002820155606082015160038201805460ff1916600183600481111561054657610546610d66565b0217905550506000805491508061055c83610d30565b91905055507ff29fdea51f7ec4cf45bbb7eb61e67fa64cf90101b5ea7415c5b02b69bac9c594856040516105909190610c4f565b60405180910390a15050505050565b60018060028054600160a01b900460ff16908111156105c0576105c0610d66565b146105ca57600080fd5b816001806000546105db9190610cb6565b821315801561062057508060048111156105f7576105f7610d66565b6000838152600360208190526040909120015460ff16600481111561061e5761061e610d66565b145b61062957600080fd5b6001546001600160a01b0316331461064057600080fd5b600084815260036020818152604092839020909101805460ff1916600217905590518581527fde2dc33fbe2a5b6bf5e0ed721d44dc14441c4eef2cf4975ce14fd7bc0549489c910161046d565b6003602052600090815260409020805481906106a890610cf5565b80601f01602080910402602001604051908101604052809291908181526020018280546106d490610cf5565b80156107215780601f106106f657610100808354040283529160200191610721565b820191906000526020600020905b81548152906001019060200180831161070457829003601f168201915b50505050509080600101805461073690610cf5565b80601f016020809104026020016040519081016040528092919081815260200182805461076290610cf5565b80156107af5780601f10610784576101008083540402835291602001916107af565b820191906000526020600020905b81548152906001019060200180831161079257829003601f168201915b50505050600283015460039093015491929160ff16905084565b60018060028054600160a01b900460ff16908111156107ea576107ea610d66565b146107f457600080fd5b81600360016000546108069190610cb6565b821315801561084b575080600481111561082257610822610d66565b6000838152600360208190526040909120015460ff16600481111561084957610849610d66565b145b61085457600080fd5b6001546001600160a01b0316331461086b57600080fd5b6001546000858152600360205260408082206002015490516001600160a01b039093169281156108fc0292818181858888f193505050501580156108b3573d6000803e3d6000fd5b50600084815260036020818152604092839020918201805460ff191660041790556002909101548251878152918201527fd73e163332c47993ba97b46887362ea1f01120cbc609242b41762901217bfd5d910161046d565b6002546001600160a01b031633148061092e57506001546001600160a01b031633145b61093757600080fd5b471561094257600080fd5b6002805460ff60a01b1916600160a11b1790556040517fbef1ef6470add1875c12e547d844894de0608f7d47527676863b44153090bfe290600090a1565b60008060028054600160a01b900460ff16908111156109a1576109a1610d66565b146109ab57600080fd5b600280546001600160a81b0319163360ff60a01b19811691909117600160a01b1790915560408051918252517f01bc39c23d192137df337abb0c6fe3f63a86ead52f73452ca64136a5dfd7ff439181900360200190a150565b604051806080016040528060608152602001606081526020016000815260200160006004811115610a3757610a37610d66565b905290565b828054610a4890610cf5565b90600052602060002090601f016020900481019282610a6a5760008555610ab0565b82601f10610a8357805160ff1916838001178555610ab0565b82800160010185558215610ab0579182015b82811115610ab0578251825591602001919060010190610a95565b50610abc929150610ac0565b5090565b5b80821115610abc5760008155600101610ac1565b600082601f830112610ae657600080fd5b813567ffffffffffffffff80821115610b0157610b01610d7c565b604051601f8301601f19908116603f01168101908282118183101715610b2957610b29610d7c565b81604052838152866020858801011115610b4257600080fd5b836020870160208301376000602085830101528094505050505092915050565b600060208284031215610b7457600080fd5b5035919050565b600080600060608486031215610b9057600080fd5b833567ffffffffffffffff80821115610ba857600080fd5b610bb487838801610ad5565b94506020860135915080821115610bca57600080fd5b50610bd786828701610ad5565b925050604084013590509250925092565b6000815180845260005b81811015610c0e57602081850181015186830182015201610bf2565b81811115610c20576000602083870101525b50601f01601f19169290920160200192915050565b6020810160038310610c4957610c49610d66565b91905290565b602081526000610c626020830184610be8565b9392505050565b608081526000610c7c6080830187610be8565b8281036020840152610c8e8187610be8565b91505083604083015260058310610ca757610ca7610d66565b82606083015295945050505050565b60008083128015600160ff1b850184121615610cd457610cd4610d50565b6001600160ff1b0384018313811615610cef57610cef610d50565b50500390565b600181811c90821680610d0957607f821691505b60208210811415610d2a57634e487b7160e01b600052602260045260246000fd5b50919050565b60006001600160ff1b03821415610d4957610d49610d50565b5060010190565b634e487b7160e01b600052601160045260246000fd5b634e487b7160e01b600052602160045260246000fd5b634e487b7160e01b600052604160045260246000fdfea2646970667358221220e0b100524a26e947ad187f0c8182c5195e40a9cd95d326bae00500587d59f2a164736f6c63430008070033",
			"opcodes": "PUSH1 0x80 PUSH1 0x40 MSTORE PUSH1 0x0 DUP1 SSTORE CALLVALUE DUP1 ISZERO PUSH2 0x14 JUMPI PUSH1 0x0 DUP1 REVERT JUMPDEST POP PUSH1 0x1 DUP1 SLOAD PUSH1 0x1 PUSH1 0x1 PUSH1 0xA0 SHL SUB NOT AND CALLER OR SWAP1 SSTORE PUSH1 0x2 DUP1 SLOAD PUSH1 0xFF PUSH1 0xA0 SHL NOT AND SWAP1 SSTORE PUSH2 0xDC8 DUP1 PUSH2 0x43 PUSH1 0x0 CODECOPY PUSH1 0x0 RETURN INVALID PUSH1 0x80 PUSH1 0x40 MSTORE PUSH1 0x4 CALLDATASIZE LT PUSH2 0xC2 JUMPI PUSH1 0x0 CALLDATALOAD PUSH1 0xE0 SHR DUP1 PUSH4 0x84BF66AC GT PUSH2 0x7F JUMPI DUP1 PUSH4 0xBAB56910 GT PUSH2 0x59 JUMPI DUP1 PUSH4 0xBAB56910 EQ PUSH2 0x1FA JUMPI DUP1 PUSH4 0xBB6FC950 EQ PUSH2 0x22A JUMPI DUP1 PUSH4 0xC3966409 EQ PUSH2 0x23D JUMPI DUP1 PUSH4 0xC916B6DE EQ PUSH2 0x252 JUMPI PUSH1 0x0 DUP1 REVERT JUMPDEST DUP1 PUSH4 0x84BF66AC EQ PUSH2 0x1A4 JUMPI DUP1 PUSH4 0x965720AF EQ PUSH2 0x1C4 JUMPI DUP1 PUSH4 0xB7896A30 EQ PUSH2 0x1DA JUMPI PUSH1 0x0 DUP1 REVERT JUMPDEST DUP1 PUSH4 0x54F84ED EQ PUSH2 0xC7 JUMPI DUP1 PUSH4 0x6A4E7CB EQ PUSH2 0xDC JUMPI DUP1 PUSH4 0x12065FE0 EQ PUSH2 0x119 JUMPI DUP1 PUSH4 0x2C2AB5EA EQ PUSH2 0x136 JUMPI DUP1 PUSH4 0x6DC5434C EQ PUSH2 0x156 JUMPI DUP1 PUSH4 0x748807AB EQ PUSH2 0x176 JUMPI JUMPDEST PUSH1 0x0 DUP1 REVERT JUMPDEST PUSH2 0xDA PUSH2 0xD5 CALLDATASIZE PUSH1 0x4 PUSH2 0xB62 JUMP JUMPDEST PUSH2 0x267 JUMP JUMPDEST STOP JUMPDEST CALLVALUE DUP1 ISZERO PUSH2 0xE8 JUMPI PUSH1 0x0 DUP1 REVERT JUMPDEST POP PUSH1 0x1 SLOAD PUSH2 0xFC SWAP1 PUSH1 0x1 PUSH1 0x1 PUSH1 0xA0 SHL SUB AND DUP2 JUMP JUMPDEST PUSH1 0x40 MLOAD PUSH1 0x1 PUSH1 0x1 PUSH1 0xA0 SHL SUB SWAP1 SWAP2 AND DUP2 MSTORE PUSH1 0x20 ADD JUMPDEST PUSH1 0x40 MLOAD DUP1 SWAP2 SUB SWAP1 RETURN JUMPDEST CALLVALUE DUP1 ISZERO PUSH2 0x125 JUMPI PUSH1 0x0 DUP1 REVERT JUMPDEST POP SELFBALANCE JUMPDEST PUSH1 0x40 MLOAD SWAP1 DUP2 MSTORE PUSH1 0x20 ADD PUSH2 0x110 JUMP JUMPDEST CALLVALUE DUP1 ISZERO PUSH2 0x142 JUMPI PUSH1 0x0 DUP1 REVERT JUMPDEST POP PUSH1 0x2 SLOAD PUSH2 0xFC SWAP1 PUSH1 0x1 PUSH1 0x1 PUSH1 0xA0 SHL SUB AND DUP2 JUMP JUMPDEST CALLVALUE DUP1 ISZERO PUSH2 0x162 JUMPI PUSH1 0x0 DUP1 REVERT JUMPDEST POP PUSH2 0xDA PUSH2 0x171 CALLDATASIZE PUSH1 0x4 PUSH2 0xB62 JUMP JUMPDEST PUSH2 0x382 JUMP JUMPDEST CALLVALUE DUP1 ISZERO PUSH2 0x182 JUMPI PUSH1 0x0 DUP1 REVERT JUMPDEST POP PUSH1 0x2 SLOAD PUSH2 0x197 SWAP1 PUSH1 0x1 PUSH1 0xA0 SHL SWAP1 DIV PUSH1 0xFF AND DUP2 JUMP JUMPDEST PUSH1 0x40 MLOAD PUSH2 0x110 SWAP2 SWAP1 PUSH2 0xC35 JUMP JUMPDEST CALLVALUE DUP1 ISZERO PUSH2 0x1B0 JUMPI PUSH1 0x0 DUP1 REVERT JUMPDEST POP PUSH2 0xDA PUSH2 0x1BF CALLDATASIZE PUSH1 0x4 PUSH2 0xB7B JUMP JUMPDEST PUSH2 0x47B JUMP JUMPDEST CALLVALUE DUP1 ISZERO PUSH2 0x1D0 JUMPI PUSH1 0x0 DUP1 REVERT JUMPDEST POP PUSH2 0x128 PUSH1 0x0 SLOAD DUP2 JUMP JUMPDEST CALLVALUE DUP1 ISZERO PUSH2 0x1E6 JUMPI PUSH1 0x0 DUP1 REVERT JUMPDEST POP PUSH2 0xDA PUSH2 0x1F5 CALLDATASIZE PUSH1 0x4 PUSH2 0xB62 JUMP JUMPDEST PUSH2 0x59F JUMP JUMPDEST CALLVALUE DUP1 ISZERO PUSH2 0x206 JUMPI PUSH1 0x0 DUP1 REVERT JUMPDEST POP PUSH2 0x21A PUSH2 0x215 CALLDATASIZE PUSH1 0x4 PUSH2 0xB62 JUMP JUMPDEST PUSH2 0x68D JUMP JUMPDEST PUSH1 0x40 MLOAD PUSH2 0x110 SWAP5 SWAP4 SWAP3 SWAP2 SWAP1 PUSH2 0xC69 JUMP JUMPDEST PUSH2 0xDA PUSH2 0x238 CALLDATASIZE PUSH1 0x4 PUSH2 0xB62 JUMP JUMPDEST PUSH2 0x7C9 JUMP JUMPDEST CALLVALUE DUP1 ISZERO PUSH2 0x249 JUMPI PUSH1 0x0 DUP1 REVERT JUMPDEST POP PUSH2 0xDA PUSH2 0x90B JUMP JUMPDEST CALLVALUE DUP1 ISZERO PUSH2 0x25E JUMPI PUSH1 0x0 DUP1 REVERT JUMPDEST POP PUSH2 0xDA PUSH2 0x980 JUMP JUMPDEST PUSH1 0x1 DUP1 PUSH1 0x2 DUP1 SLOAD PUSH1 0x1 PUSH1 0xA0 SHL SWAP1 DIV PUSH1 0xFF AND SWAP1 DUP2 GT ISZERO PUSH2 0x288 JUMPI PUSH2 0x288 PUSH2 0xD66 JUMP JUMPDEST EQ PUSH2 0x292 JUMPI PUSH1 0x0 DUP1 REVERT JUMPDEST DUP2 PUSH1 0x0 PUSH1 0x1 PUSH1 0x0 SLOAD PUSH2 0x2A4 SWAP2 SWAP1 PUSH2 0xCB6 JUMP JUMPDEST DUP3 SGT ISZERO DUP1 ISZERO PUSH2 0x2E9 JUMPI POP DUP1 PUSH1 0x4 DUP2 GT ISZERO PUSH2 0x2C0 JUMPI PUSH2 0x2C0 PUSH2 0xD66 JUMP JUMPDEST PUSH1 0x0 DUP4 DUP2 MSTORE PUSH1 0x3 PUSH1 0x20 DUP2 SWAP1 MSTORE PUSH1 0x40 SWAP1 SWAP2 KECCAK256 ADD SLOAD PUSH1 0xFF AND PUSH1 0x4 DUP2 GT ISZERO PUSH2 0x2E7 JUMPI PUSH2 0x2E7 PUSH2 0xD66 JUMP JUMPDEST EQ JUMPDEST PUSH2 0x2F2 JUMPI PUSH1 0x0 DUP1 REVERT JUMPDEST PUSH1 0x0 DUP5 DUP2 MSTORE PUSH1 0x3 PUSH1 0x20 MSTORE PUSH1 0x40 SWAP1 KECCAK256 PUSH1 0x2 ADD SLOAD DUP5 SWAP1 CALLVALUE SWAP1 DUP2 EQ PUSH2 0x313 JUMPI PUSH1 0x0 DUP1 REVERT JUMPDEST PUSH1 0x2 SLOAD PUSH1 0x1 PUSH1 0x1 PUSH1 0xA0 SHL SUB AND CALLER EQ PUSH2 0x32A JUMPI PUSH1 0x0 DUP1 REVERT JUMPDEST PUSH1 0x0 DUP7 DUP2 MSTORE PUSH1 0x3 PUSH1 0x20 DUP2 DUP2 MSTORE PUSH1 0x40 SWAP3 DUP4 SWAP1 KECCAK256 SWAP1 SWAP2 ADD DUP1 SLOAD PUSH1 0xFF NOT AND PUSH1 0x1 OR SWAP1 SSTORE SWAP1 MLOAD DUP8 DUP2 MSTORE PUSH32 0xD58E7B4972479E30BD65E34280DCDA90802A617A803CB4B39764A2A30D3A8EAE SWAP2 ADD PUSH1 0x40 MLOAD DUP1 SWAP2 SUB SWAP1 LOG1 POP POP POP POP POP POP JUMP JUMPDEST PUSH1 0x1 DUP1 PUSH1 0x2 DUP1 SLOAD PUSH1 0x1 PUSH1 0xA0 SHL SWAP1 DIV PUSH1 0xFF AND SWAP1 DUP2 GT ISZERO PUSH2 0x3A3 JUMPI PUSH2 0x3A3 PUSH2 0xD66 JUMP JUMPDEST EQ PUSH2 0x3AD JUMPI PUSH1 0x0 DUP1 REVERT JUMPDEST DUP2 PUSH1 0x2 PUSH1 0x1 PUSH1 0x0 SLOAD PUSH2 0x3BF SWAP2 SWAP1 PUSH2 0xCB6 JUMP JUMPDEST DUP3 SGT ISZERO DUP1 ISZERO PUSH2 0x404 JUMPI POP DUP1 PUSH1 0x4 DUP2 GT ISZERO PUSH2 0x3DB JUMPI PUSH2 0x3DB PUSH2 0xD66 JUMP JUMPDEST PUSH1 0x0 DUP4 DUP2 MSTORE PUSH1 0x3 PUSH1 0x20 DUP2 SWAP1 MSTORE PUSH1 0x40 SWAP1 SWAP2 KECCAK256 ADD SLOAD PUSH1 0xFF AND PUSH1 0x4 DUP2 GT ISZERO PUSH2 0x402 JUMPI PUSH2 0x402 PUSH2 0xD66 JUMP JUMPDEST EQ JUMPDEST PUSH2 0x40D JUMPI PUSH1 0x0 DUP1 REVERT JUMPDEST PUSH1 0x2 SLOAD PUSH1 0x1 PUSH1 0x1 PUSH1 0xA0 SHL SUB AND CALLER EQ PUSH2 0x424 JUMPI PUSH1 0x0 DUP1 REVERT JUMPDEST PUSH1 0x0 DUP5 DUP2 MSTORE PUSH1 0x3 PUSH1 0x20 DUP2 DUP2 MSTORE PUSH1 0x40 SWAP3 DUP4 SWAP1 KECCAK256 DUP3 ADD DUP1 SLOAD PUSH1 0xFF NOT AND SWAP1 SWAP3 OR SWAP1 SWAP2 SSTORE SWAP1 MLOAD DUP6 DUP2 MSTORE PUSH32 0x38F72D6C98702D265AEC82B55E4B637D84FA97622B2244CD84DCA2F171A0CEFC SWAP2 ADD JUMPDEST PUSH1 0x40 MLOAD DUP1 SWAP2 SUB SWAP1 LOG1 POP POP POP POP JUMP JUMPDEST PUSH1 0x0 DUP1 PUSH1 0x2 DUP1 SLOAD PUSH1 0x1 PUSH1 0xA0 SHL SWAP1 DIV PUSH1 0xFF AND SWAP1 DUP2 GT ISZERO PUSH2 0x49C JUMPI PUSH2 0x49C PUSH2 0xD66 JUMP JUMPDEST EQ PUSH2 0x4A6 JUMPI PUSH1 0x0 DUP1 REVERT JUMPDEST PUSH1 0x1 SLOAD PUSH1 0x1 PUSH1 0x1 PUSH1 0xA0 SHL SUB AND CALLER EQ PUSH2 0x4BD JUMPI PUSH1 0x0 DUP1 REVERT JUMPDEST PUSH2 0x4C5 PUSH2 0xA04 JUMP JUMPDEST DUP5 DUP2 MSTORE PUSH1 0x20 DUP1 DUP3 ADD DUP6 SWAP1 MSTORE PUSH1 0x0 PUSH1 0x60 DUP4 ADD DUP2 SWAP1 MSTORE PUSH1 0x40 DUP1 DUP5 ADD DUP7 SWAP1 MSTORE DUP2 SLOAD DUP3 MSTORE PUSH1 0x3 DUP4 MSTORE SWAP1 KECCAK256 DUP3 MLOAD DUP1 MLOAD DUP5 SWAP4 PUSH2 0x4FF SWAP3 DUP5 SWAP3 SWAP2 ADD SWAP1 PUSH2 0xA3C JUMP JUMPDEST POP PUSH1 0x20 DUP3 DUP2 ADD MLOAD DUP1 MLOAD PUSH2 0x518 SWAP3 PUSH1 0x1 DUP6 ADD SWAP3 ADD SWAP1 PUSH2 0xA3C JUMP JUMPDEST POP PUSH1 0x40 DUP3 ADD MLOAD PUSH1 0x2 DUP3 ADD SSTORE PUSH1 0x60 DUP3 ADD MLOAD PUSH1 0x3 DUP3 ADD DUP1 SLOAD PUSH1 0xFF NOT AND PUSH1 0x1 DUP4 PUSH1 0x4 DUP2 GT ISZERO PUSH2 0x546 JUMPI PUSH2 0x546 PUSH2 0xD66 JUMP JUMPDEST MUL OR SWAP1 SSTORE POP POP PUSH1 0x0 DUP1 SLOAD SWAP2 POP DUP1 PUSH2 0x55C DUP4 PUSH2 0xD30 JUMP JUMPDEST SWAP2 SWAP1 POP SSTORE POP PUSH32 0xF29FDEA51F7EC4CF45BBB7EB61E67FA64CF90101B5EA7415C5B02B69BAC9C594 DUP6 PUSH1 0x40 MLOAD PUSH2 0x590 SWAP2 SWAP1 PUSH2 0xC4F JUMP JUMPDEST PUSH1 0x40 MLOAD DUP1 SWAP2 SUB SWAP1 LOG1 POP POP POP POP POP JUMP JUMPDEST PUSH1 0x1 DUP1 PUSH1 0x2 DUP1 SLOAD PUSH1 0x1 PUSH1 0xA0 SHL SWAP1 DIV PUSH1 0xFF AND SWAP1 DUP2 GT ISZERO PUSH2 0x5C0 JUMPI PUSH2 0x5C0 PUSH2 0xD66 JUMP JUMPDEST EQ PUSH2 0x5CA JUMPI PUSH1 0x0 DUP1 REVERT JUMPDEST DUP2 PUSH1 0x1 DUP1 PUSH1 0x0 SLOAD PUSH2 0x5DB SWAP2 SWAP1 PUSH2 0xCB6 JUMP JUMPDEST DUP3 SGT ISZERO DUP1 ISZERO PUSH2 0x620 JUMPI POP DUP1 PUSH1 0x4 DUP2 GT ISZERO PUSH2 0x5F7 JUMPI PUSH2 0x5F7 PUSH2 0xD66 JUMP JUMPDEST PUSH1 0x0 DUP4 DUP2 MSTORE PUSH1 0x3 PUSH1 0x20 DUP2 SWAP1 MSTORE PUSH1 0x40 SWAP1 SWAP2 KECCAK256 ADD SLOAD PUSH1 0xFF AND PUSH1 0x4 DUP2 GT ISZERO PUSH2 0x61E JUMPI PUSH2 0x61E PUSH2 0xD66 JUMP JUMPDEST EQ JUMPDEST PUSH2 0x629 JUMPI PUSH1 0x0 DUP1 REVERT JUMPDEST PUSH1 0x1 SLOAD PUSH1 0x1 PUSH1 0x1 PUSH1 0xA0 SHL SUB AND CALLER EQ PUSH2 0x640 JUMPI PUSH1 0x0 DUP1 REVERT JUMPDEST PUSH1 0x0 DUP5 DUP2 MSTORE PUSH1 0x3 PUSH1 0x20 DUP2 DUP2 MSTORE PUSH1 0x40 SWAP3 DUP4 SWAP1 KECCAK256 SWAP1 SWAP2 ADD DUP1 SLOAD PUSH1 0xFF NOT AND PUSH1 0x2 OR SWAP1 SSTORE SWAP1 MLOAD DUP6 DUP2 MSTORE PUSH32 0xDE2DC33FBE2A5B6BF5E0ED721D44DC14441C4EEF2CF4975CE14FD7BC0549489C SWAP2 ADD PUSH2 0x46D JUMP JUMPDEST PUSH1 0x3 PUSH1 0x20 MSTORE PUSH1 0x0 SWAP1 DUP2 MSTORE PUSH1 0x40 SWAP1 KECCAK256 DUP1 SLOAD DUP2 SWAP1 PUSH2 0x6A8 SWAP1 PUSH2 0xCF5 JUMP JUMPDEST DUP1 PUSH1 0x1F ADD PUSH1 0x20 DUP1 SWAP2 DIV MUL PUSH1 0x20 ADD PUSH1 0x40 MLOAD SWAP1 DUP2 ADD PUSH1 0x40 MSTORE DUP1 SWAP3 SWAP2 SWAP1 DUP2 DUP2 MSTORE PUSH1 0x20 ADD DUP3 DUP1 SLOAD PUSH2 0x6D4 SWAP1 PUSH2 0xCF5 JUMP JUMPDEST DUP1 ISZERO PUSH2 0x721 JUMPI DUP1 PUSH1 0x1F LT PUSH2 0x6F6 JUMPI PUSH2 0x100 DUP1 DUP4 SLOAD DIV MUL DUP4 MSTORE SWAP2 PUSH1 0x20 ADD SWAP2 PUSH2 0x721 JUMP JUMPDEST DUP3 ADD SWAP2 SWAP1 PUSH1 0x0 MSTORE PUSH1 0x20 PUSH1 0x0 KECCAK256 SWAP1 JUMPDEST DUP2 SLOAD DUP2 MSTORE SWAP1 PUSH1 0x1 ADD SWAP1 PUSH1 0x20 ADD DUP1 DUP4 GT PUSH2 0x704 JUMPI DUP3 SWAP1 SUB PUSH1 0x1F AND DUP3 ADD SWAP2 JUMPDEST POP POP POP POP POP SWAP1 DUP1 PUSH1 0x1 ADD DUP1 SLOAD PUSH2 0x736 SWAP1 PUSH2 0xCF5 JUMP JUMPDEST DUP1 PUSH1 0x1F ADD PUSH1 0x20 DUP1 SWAP2 DIV MUL PUSH1 0x20 ADD PUSH1 0x40 MLOAD SWAP1 DUP2 ADD PUSH1 0x40 MSTORE DUP1 SWAP3 SWAP2 SWAP1 DUP2 DUP2 MSTORE PUSH1 0x20 ADD DUP3 DUP1 SLOAD PUSH2 0x762 SWAP1 PUSH2 0xCF5 JUMP JUMPDEST DUP1 ISZERO PUSH2 0x7AF JUMPI DUP1 PUSH1 0x1F LT PUSH2 0x784 JUMPI PUSH2 0x100 DUP1 DUP4 SLOAD DIV MUL DUP4 MSTORE SWAP2 PUSH1 0x20 ADD SWAP2 PUSH2 0x7AF JUMP JUMPDEST DUP3 ADD SWAP2 SWAP1 PUSH1 0x0 MSTORE PUSH1 0x20 PUSH1 0x0 KECCAK256 SWAP1 JUMPDEST DUP2 SLOAD DUP2 MSTORE SWAP1 PUSH1 0x1 ADD SWAP1 PUSH1 0x20 ADD DUP1 DUP4 GT PUSH2 0x792 JUMPI DUP3 SWAP1 SUB PUSH1 0x1F AND DUP3 ADD SWAP2 JUMPDEST POP POP POP POP PUSH1 0x2 DUP4 ADD SLOAD PUSH1 0x3 SWAP1 SWAP4 ADD SLOAD SWAP2 SWAP3 SWAP2 PUSH1 0xFF AND SWAP1 POP DUP5 JUMP JUMPDEST PUSH1 0x1 DUP1 PUSH1 0x2 DUP1 SLOAD PUSH1 0x1 PUSH1 0xA0 SHL SWAP1 DIV PUSH1 0xFF AND SWAP1 DUP2 GT ISZERO PUSH2 0x7EA JUMPI PUSH2 0x7EA PUSH2 0xD66 JUMP JUMPDEST EQ PUSH2 0x7F4 JUMPI PUSH1 0x0 DUP1 REVERT JUMPDEST DUP2 PUSH1 0x3 PUSH1 0x1 PUSH1 0x0 SLOAD PUSH2 0x806 SWAP2 SWAP1 PUSH2 0xCB6 JUMP JUMPDEST DUP3 SGT ISZERO DUP1 ISZERO PUSH2 0x84B JUMPI POP DUP1 PUSH1 0x4 DUP2 GT ISZERO PUSH2 0x822 JUMPI PUSH2 0x822 PUSH2 0xD66 JUMP JUMPDEST PUSH1 0x0 DUP4 DUP2 MSTORE PUSH1 0x3 PUSH1 0x20 DUP2 SWAP1 MSTORE PUSH1 0x40 SWAP1 SWAP2 KECCAK256 ADD SLOAD PUSH1 0xFF AND PUSH1 0x4 DUP2 GT ISZERO PUSH2 0x849 JUMPI PUSH2 0x849 PUSH2 0xD66 JUMP JUMPDEST EQ JUMPDEST PUSH2 0x854 JUMPI PUSH1 0x0 DUP1 REVERT JUMPDEST PUSH1 0x1 SLOAD PUSH1 0x1 PUSH1 0x1 PUSH1 0xA0 SHL SUB AND CALLER EQ PUSH2 0x86B JUMPI PUSH1 0x0 DUP1 REVERT JUMPDEST PUSH1 0x1 SLOAD PUSH1 0x0 DUP6 DUP2 MSTORE PUSH1 0x3 PUSH1 0x20 MSTORE PUSH1 0x40 DUP1 DUP3 KECCAK256 PUSH1 0x2 ADD SLOAD SWAP1 MLOAD PUSH1 0x1 PUSH1 0x1 PUSH1 0xA0 SHL SUB SWAP1 SWAP4 AND SWAP3 DUP2 ISZERO PUSH2 0x8FC MUL SWAP3 DUP2 DUP2 DUP2 DUP6 DUP9 DUP9 CALL SWAP4 POP POP POP POP ISZERO DUP1 ISZERO PUSH2 0x8B3 JUMPI RETURNDATASIZE PUSH1 0x0 DUP1 RETURNDATACOPY RETURNDATASIZE PUSH1 0x0 REVERT JUMPDEST POP PUSH1 0x0 DUP5 DUP2 MSTORE PUSH1 0x3 PUSH1 0x20 DUP2 DUP2 MSTORE PUSH1 0x40 SWAP3 DUP4 SWAP1 KECCAK256 SWAP2 DUP3 ADD DUP1 SLOAD PUSH1 0xFF NOT AND PUSH1 0x4 OR SWAP1 SSTORE PUSH1 0x2 SWAP1 SWAP2 ADD SLOAD DUP3 MLOAD DUP8 DUP2 MSTORE SWAP2 DUP3 ADD MSTORE PUSH32 0xD73E163332C47993BA97B46887362EA1F01120CBC609242B41762901217BFD5D SWAP2 ADD PUSH2 0x46D JUMP JUMPDEST PUSH1 0x2 SLOAD PUSH1 0x1 PUSH1 0x1 PUSH1 0xA0 SHL SUB AND CALLER EQ DUP1 PUSH2 0x92E JUMPI POP PUSH1 0x1 SLOAD PUSH1 0x1 PUSH1 0x1 PUSH1 0xA0 SHL SUB AND CALLER EQ JUMPDEST PUSH2 0x937 JUMPI PUSH1 0x0 DUP1 REVERT JUMPDEST SELFBALANCE ISZERO PUSH2 0x942 JUMPI PUSH1 0x0 DUP1 REVERT JUMPDEST PUSH1 0x2 DUP1 SLOAD PUSH1 0xFF PUSH1 0xA0 SHL NOT AND PUSH1 0x1 PUSH1 0xA1 SHL OR SWAP1 SSTORE PUSH1 0x40 MLOAD PUSH32 0xBEF1EF6470ADD1875C12E547D844894DE0608F7D47527676863B44153090BFE2 SWAP1 PUSH1 0x0 SWAP1 LOG1 JUMP JUMPDEST PUSH1 0x0 DUP1 PUSH1 0x2 DUP1 SLOAD PUSH1 0x1 PUSH1 0xA0 SHL SWAP1 DIV PUSH1 0xFF AND SWAP1 DUP2 GT ISZERO PUSH2 0x9A1 JUMPI PUSH2 0x9A1 PUSH2 0xD66 JUMP JUMPDEST EQ PUSH2 0x9AB JUMPI PUSH1 0x0 DUP1 REVERT JUMPDEST PUSH1 0x2 DUP1 SLOAD PUSH1 0x1 PUSH1 0x1 PUSH1 0xA8 SHL SUB NOT AND CALLER PUSH1 0xFF PUSH1 0xA0 SHL NOT DUP2 AND SWAP2 SWAP1 SWAP2 OR PUSH1 0x1 PUSH1 0xA0 SHL OR SWAP1 SWAP2 SSTORE PUSH1 0x40 DUP1 MLOAD SWAP2 DUP3 MSTORE MLOAD PUSH32 0x1BC39C23D192137DF337ABB0C6FE3F63A86EAD52F73452CA64136A5DFD7FF43 SWAP2 DUP2 SWAP1 SUB PUSH1 0x20 ADD SWAP1 LOG1 POP JUMP JUMPDEST PUSH1 0x40 MLOAD DUP1 PUSH1 0x80 ADD PUSH1 0x40 MSTORE DUP1 PUSH1 0x60 DUP2 MSTORE PUSH1 0x20 ADD PUSH1 0x60 DUP2 MSTORE PUSH1 0x20 ADD PUSH1 0x0 DUP2 MSTORE PUSH1 0x20 ADD PUSH1 0x0 PUSH1 0x4 DUP2 GT ISZERO PUSH2 0xA37 JUMPI PUSH2 0xA37 PUSH2 0xD66 JUMP JUMPDEST SWAP1 MSTORE SWAP1 JUMP JUMPDEST DUP3 DUP1 SLOAD PUSH2 0xA48 SWAP1 PUSH2 0xCF5 JUMP JUMPDEST SWAP1 PUSH1 0x0 MSTORE PUSH1 0x20 PUSH1 0x0 KECCAK256 SWAP1 PUSH1 0x1F ADD PUSH1 0x20 SWAP1 DIV DUP2 ADD SWAP3 DUP3 PUSH2 0xA6A JUMPI PUSH1 0x0 DUP6 SSTORE PUSH2 0xAB0 JUMP JUMPDEST DUP3 PUSH1 0x1F LT PUSH2 0xA83 JUMPI DUP1 MLOAD PUSH1 0xFF NOT AND DUP4 DUP1 ADD OR DUP6 SSTORE PUSH2 0xAB0 JUMP JUMPDEST DUP3 DUP1 ADD PUSH1 0x1 ADD DUP6 SSTORE DUP3 ISZERO PUSH2 0xAB0 JUMPI SWAP2 DUP3 ADD JUMPDEST DUP3 DUP2 GT ISZERO PUSH2 0xAB0 JUMPI DUP3 MLOAD DUP3 SSTORE SWAP2 PUSH1 0x20 ADD SWAP2 SWAP1 PUSH1 0x1 ADD SWAP1 PUSH2 0xA95 JUMP JUMPDEST POP PUSH2 0xABC SWAP3 SWAP2 POP PUSH2 0xAC0 JUMP JUMPDEST POP SWAP1 JUMP JUMPDEST JUMPDEST DUP1 DUP3 GT ISZERO PUSH2 0xABC JUMPI PUSH1 0x0 DUP2 SSTORE PUSH1 0x1 ADD PUSH2 0xAC1 JUMP JUMPDEST PUSH1 0x0 DUP3 PUSH1 0x1F DUP4 ADD SLT PUSH2 0xAE6 JUMPI PUSH1 0x0 DUP1 REVERT JUMPDEST DUP2 CALLDATALOAD PUSH8 0xFFFFFFFFFFFFFFFF DUP1 DUP3 GT ISZERO PUSH2 0xB01 JUMPI PUSH2 0xB01 PUSH2 0xD7C JUMP JUMPDEST PUSH1 0x40 MLOAD PUSH1 0x1F DUP4 ADD PUSH1 0x1F NOT SWAP1 DUP2 AND PUSH1 0x3F ADD AND DUP2 ADD SWAP1 DUP3 DUP3 GT DUP2 DUP4 LT OR ISZERO PUSH2 0xB29 JUMPI PUSH2 0xB29 PUSH2 0xD7C JUMP JUMPDEST DUP2 PUSH1 0x40 MSTORE DUP4 DUP2 MSTORE DUP7 PUSH1 0x20 DUP6 DUP9 ADD ADD GT ISZERO PUSH2 0xB42 JUMPI PUSH1 0x0 DUP1 REVERT JUMPDEST DUP4 PUSH1 0x20 DUP8 ADD PUSH1 0x20 DUP4 ADD CALLDATACOPY PUSH1 0x0 PUSH1 0x20 DUP6 DUP4 ADD ADD MSTORE DUP1 SWAP5 POP POP POP POP POP SWAP3 SWAP2 POP POP JUMP JUMPDEST PUSH1 0x0 PUSH1 0x20 DUP3 DUP5 SUB SLT ISZERO PUSH2 0xB74 JUMPI PUSH1 0x0 DUP1 REVERT JUMPDEST POP CALLDATALOAD SWAP2 SWAP1 POP JUMP JUMPDEST PUSH1 0x0 DUP1 PUSH1 0x0 PUSH1 0x60 DUP5 DUP7 SUB SLT ISZERO PUSH2 0xB90 JUMPI PUSH1 0x0 DUP1 REVERT JUMPDEST DUP4 CALLDATALOAD PUSH8 0xFFFFFFFFFFFFFFFF DUP1 DUP3 GT ISZERO PUSH2 0xBA8 JUMPI PUSH1 0x0 DUP1 REVERT JUMPDEST PUSH2 0xBB4 DUP8 DUP4 DUP9 ADD PUSH2 0xAD5 JUMP JUMPDEST SWAP5 POP PUSH1 0x20 DUP7 ADD CALLDATALOAD SWAP2 POP DUP1 DUP3 GT ISZERO PUSH2 0xBCA JUMPI PUSH1 0x0 DUP1 REVERT JUMPDEST POP PUSH2 0xBD7 DUP7 DUP3 DUP8 ADD PUSH2 0xAD5 JUMP JUMPDEST SWAP3 POP POP PUSH1 0x40 DUP5 ADD CALLDATALOAD SWAP1 POP SWAP3 POP SWAP3 POP SWAP3 JUMP JUMPDEST PUSH1 0x0 DUP2 MLOAD DUP1 DUP5 MSTORE PUSH1 0x0 JUMPDEST DUP2 DUP2 LT ISZERO PUSH2 0xC0E JUMPI PUSH1 0x20 DUP2 DUP6 ADD DUP2 ADD MLOAD DUP7 DUP4 ADD DUP3 ADD MSTORE ADD PUSH2 0xBF2 JUMP JUMPDEST DUP2 DUP2 GT ISZERO PUSH2 0xC20 JUMPI PUSH1 0x0 PUSH1 0x20 DUP4 DUP8 ADD ADD MSTORE JUMPDEST POP PUSH1 0x1F ADD PUSH1 0x1F NOT AND SWAP3 SWAP1 SWAP3 ADD PUSH1 0x20 ADD SWAP3 SWAP2 POP POP JUMP JUMPDEST PUSH1 0x20 DUP2 ADD PUSH1 0x3 DUP4 LT PUSH2 0xC49 JUMPI PUSH2 0xC49 PUSH2 0xD66 JUMP JUMPDEST SWAP2 SWAP1 MSTORE SWAP1 JUMP JUMPDEST PUSH1 0x20 DUP2 MSTORE PUSH1 0x0 PUSH2 0xC62 PUSH1 0x20 DUP4 ADD DUP5 PUSH2 0xBE8 JUMP JUMPDEST SWAP4 SWAP3 POP POP POP JUMP JUMPDEST PUSH1 0x80 DUP2 MSTORE PUSH1 0x0 PUSH2 0xC7C PUSH1 0x80 DUP4 ADD DUP8 PUSH2 0xBE8 JUMP JUMPDEST DUP3 DUP2 SUB PUSH1 0x20 DUP5 ADD MSTORE PUSH2 0xC8E DUP2 DUP8 PUSH2 0xBE8 JUMP JUMPDEST SWAP2 POP POP DUP4 PUSH1 0x40 DUP4 ADD MSTORE PUSH1 0x5 DUP4 LT PUSH2 0xCA7 JUMPI PUSH2 0xCA7 PUSH2 0xD66 JUMP JUMPDEST DUP3 PUSH1 0x60 DUP4 ADD MSTORE SWAP6 SWAP5 POP POP POP POP POP JUMP JUMPDEST PUSH1 0x0 DUP1 DUP4 SLT DUP1 ISZERO PUSH1 0x1 PUSH1 0xFF SHL DUP6 ADD DUP5 SLT AND ISZERO PUSH2 0xCD4 JUMPI PUSH2 0xCD4 PUSH2 0xD50 JUMP JUMPDEST PUSH1 0x1 PUSH1 0x1 PUSH1 0xFF SHL SUB DUP5 ADD DUP4 SGT DUP2 AND ISZERO PUSH2 0xCEF JUMPI PUSH2 0xCEF PUSH2 0xD50 JUMP JUMPDEST POP POP SUB SWAP1 JUMP JUMPDEST PUSH1 0x1 DUP2 DUP2 SHR SWAP1 DUP3 AND DUP1 PUSH2 0xD09 JUMPI PUSH1 0x7F DUP3 AND SWAP2 POP JUMPDEST PUSH1 0x20 DUP3 LT DUP2 EQ ISZERO PUSH2 0xD2A JUMPI PUSH4 0x4E487B71 PUSH1 0xE0 SHL PUSH1 0x0 MSTORE PUSH1 0x22 PUSH1 0x4 MSTORE PUSH1 0x24 PUSH1 0x0 REVERT JUMPDEST POP SWAP2 SWAP1 POP JUMP JUMPDEST PUSH1 0x0 PUSH1 0x1 PUSH1 0x1 PUSH1 0xFF SHL SUB DUP3 EQ ISZERO PUSH2 0xD49 JUMPI PUSH2 0xD49 PUSH2 0xD50 JUMP JUMPDEST POP PUSH1 0x1 ADD SWAP1 JUMP JUMPDEST PUSH4 0x4E487B71 PUSH1 0xE0 SHL PUSH1 0x0 MSTORE PUSH1 0x11 PUSH1 0x4 MSTORE PUSH1 0x24 PUSH1 0x0 REVERT JUMPDEST PUSH4 0x4E487B71 PUSH1 0xE0 SHL PUSH1 0x0 MSTORE PUSH1 0x21 PUSH1 0x4 MSTORE PUSH1 0x24 PUSH1 0x0 REVERT JUMPDEST PUSH4 0x4E487B71 PUSH1 0xE0 SHL PUSH1 0x0 MSTORE PUSH1 0x41 PUSH1 0x4 MSTORE PUSH1 0x24 PUSH1 0x0 REVERT INVALID LOG2 PUSH5 0x6970667358 0x22 SLT KECCAK256 0xE0 0xB1 STOP MSTORE 0x4A 0x26 0xE9 SELFBALANCE 0xAD XOR PUSH32 0xC8182C5195E40A9CD95D326BAE00500587D59F2A164736F6C63430008070033 "
		},
		"gasEstimates": {
			"creation": {
				"codeDepositCost": "705600",
				"executionCost": "54206",
				"totalCost": "759806"
			},
			"external": {
				"acceptProject()": "27746",
				"addSchedule(string,string,uint256)": "infinite",
				"approveTask(int256)": "34556",
				"clientAddress()": "2393",
				"endProject()": "29521",
				"freelancerAddress()": "2349",
				"fundTask(int256)": "36650",
				"getBalance()": "228",
				"projectState()": "2479",
				"releaseFunds(int256)": "infinite",
				"scheduleRegister(int256)": "infinite",
				"startTask(int256)": "34542",
				"totalSchedules()": "2340"
			}
		},
		"methodIdentifiers": {
			"acceptProject()": "c916b6de",
			"addSchedule(string,string,uint256)": "84bf66ac",
			"approveTask(int256)": "6dc5434c",
			"clientAddress()": "2c2ab5ea",
			"endProject()": "c3966409",
			"freelancerAddress()": "06a4e7cb",
			"fundTask(int256)": "054f84ed",
			"getBalance()": "12065fe0",
			"projectState()": "748807ab",
			"releaseFunds(int256)": "bb6fc950",
			"scheduleRegister(int256)": "bab56910",
			"startTask(int256)": "b7896a30",
			"totalSchedules()": "965720af"
		}
	},
	"abi": [
		{
			"inputs": [],
			"stateMutability": "nonpayable",
			"type": "constructor"
		},
		{
			"anonymous": false,
			"inputs": [
				{
					"indexed": false,
					"internalType": "int256",
					"name": "scheduleID",
					"type": "int256"
				},
				{
					"indexed": false,
					"internalType": "uint256",
					"name": "valueReleased",
					"type": "uint256"
				}
			],
			"name": "fundsReleased",
			"type": "event"
		},
		{
			"anonymous": false,
			"inputs": [
				{
					"indexed": false,
					"internalType": "address",
					"name": "clientAddress",
					"type": "address"
				}
			],
			"name": "projectAccepted",
			"type": "event"
		},
		{
			"anonymous": false,
			"inputs": [],
			"name": "projectEnded",
			"type": "event"
		},
		{
			"anonymous": false,
			"inputs": [
				{
					"indexed": false,
					"internalType": "string",
					"name": "shortCode",
					"type": "string"
				}
			],
			"name": "scheduleAdded",
			"type": "event"
		},
		{
			"anonymous": false,
			"inputs": [
				{
					"indexed": false,
					"internalType": "int256",
					"name": "scheduleID",
					"type": "int256"
				}
			],
			"name": "taskApproved",
			"type": "event"
		},
		{
			"anonymous": false,
			"inputs": [
				{
					"indexed": false,
					"internalType": "int256",
					"name": "scheduleID",
					"type": "int256"
				}
			],
			"name": "taskFunded",
			"type": "event"
		},
		{
			"anonymous": false,
			"inputs": [
				{
					"indexed": false,
					"internalType": "int256",
					"name": "scheduleID",
					"type": "int256"
				}
			],
			"name": "taskStarted",
			"type": "event"
		},
		{
			"inputs": [],
			"name": "acceptProject",
			"outputs": [],
			"stateMutability": "nonpayable",
			"type": "function"
		},
		{
			"inputs": [
				{
					"internalType": "string",
					"name": "_shortCode",
					"type": "string"
				},
				{
					"internalType": "string",
					"name": "_description",
					"type": "string"
				},
				{
					"internalType": "uint256",
					"name": "_value",
					"type": "uint256"
				}
			],
			"name": "addSchedule",
			"outputs": [],
			"stateMutability": "nonpayable",
			"type": "function"
		},
		{
			"inputs": [
				{
					"internalType": "int256",
					"name": "_scheduleID",
					"type": "int256"
				}
			],
			"name": "approveTask",
			"outputs": [],
			"stateMutability": "nonpayable",
			"type": "function"
		},
		{
			"inputs": [],
			"name": "clientAddress",
			"outputs": [
				{
					"internalType": "address",
					"name": "",
					"type": "address"
				}
			],
			"stateMutability": "view",
			"type": "function"
		},
		{
			"inputs": [],
			"name": "endProject",
			"outputs": [],
			"stateMutability": "nonpayable",
			"type": "function"
		},
		{
			"inputs": [],
			"name": "freelancerAddress",
			"outputs": [
				{
					"internalType": "address payable",
					"name": "",
					"type": "address"
				}
			],
			"stateMutability": "view",
			"type": "function"
		},
		{
			"inputs": [
				{
					"internalType": "int256",
					"name": "_scheduleID",
					"type": "int256"
				}
			],
			"name": "fundTask",
			"outputs": [],
			"stateMutability": "payable",
			"type": "function"
		},
		{
			"inputs": [],
			"name": "getBalance",
			"outputs": [
				{
					"internalType": "uint256",
					"name": "balance",
					"type": "uint256"
				}
			],
			"stateMutability": "view",
			"type": "function"
		},
		{
			"inputs": [],
			"name": "projectState",
			"outputs": [
				{
					"internalType": "enum freelancer.ProjectState",
					"name": "",
					"type": "uint8"
				}
			],
			"stateMutability": "view",
			"type": "function"
		},
		{
			"inputs": [
				{
					"internalType": "int256",
					"name": "_scheduleID",
					"type": "int256"
				}
			],
			"name": "releaseFunds",
			"outputs": [],
			"stateMutability": "payable",
			"type": "function"
		},
		{
			"inputs": [
				{
					"internalType": "int256",
					"name": "",
					"type": "int256"
				}
			],
			"name": "scheduleRegister",
			"outputs": [
				{
					"internalType": "string",
					"name": "shortCode",
					"type": "string"
				},
				{
					"internalType": "string",
					"name": "description",
					"type": "string"
				},
				{
					"internalType": "uint256",
					"name": "value",
					"type": "uint256"
				},
				{
					"internalType": "enum freelancer.ScheduleState",
					"name": "scheduleState",
					"type": "uint8"
				}
			],
			"stateMutability": "view",
			"type": "function"
		},
		{
			"inputs": [
				{
					"internalType": "int256",
					"name": "_scheduleID",
					"type": "int256"
				}
			],
			"name": "startTask",
			"outputs": [],
			"stateMutability": "nonpayable",
			"type": "function"
		},
		{
			"inputs": [],
			"name": "totalSchedules",
			"outputs": [
				{
					"internalType": "int256",
					"name": "",
					"type": "int256"
				}
			],
			"stateMutability": "view",
			"type": "function"
		}
	]
}